:020000040800F2
:1000000000000220C5340008350B0008370B00083B
:10001000390B00083B0B00083D0B000800000000F6
:100020000000000000000000000000003F0B00087E
:10003000410B000800000000430B0008450B0008BE
:100040001535000815350008153500081535000868
:100050001535000815350008153500081535000858
:100060001535000815350008153500081535000848
:100070001535000815350008153500081535000838
:100080001535000815350008153500081535000828
:100090004D0B00081535000815350008153500080A
:1000A0001535000815350008153500081535000808
:1000B0005D0B0008153500081535000815350008DA
:1000C0001535000815350008153500086D0B0008BA
:1000D00015350008153500087D0B0008153500089A
:1000E00015350008153500081535000815350008C8
:1000F00015350008153500081535000815350008B8
:1001000015350008153500081535000815350008A7
:100110001535000815350008153500081535000897
:100120001535000815350008153500081535000887
:10013000153500080000000000000000153500081B
:100140001535000815350008153500081535000867
:100150001535000815350008153500081535000857
:100160001535000815350008153500081535000847
:100170001535000815350008153500080000000089
:10018000000000001535000800000000000000001D
:1001900015350008000000000000000015350008BB
:1001A00000000000000000000000000015350008FD
:1001B00015350008153500081535000815350008F7
:0401C00015350008E9
:1001D00010B5054C237833B9044B13B10448AFF381
:1001E00000800123237010BDB40000200000000037
:1001F000683E000808B5034B1BB103490348AFF341
:10020000008008BD00000000B8000020683E000823
:1002100001F0FF01102A2BDB10F0070F08D010F8B7
:10022000013B013A8B422DD010F0070F42B3F6D1BB
:10023000F0B441EA012141EA014122F007047FF0D4
:1002400000070023F0E80256083C85EA010586EA2B
:10025000010685FA47F5A3FA87F586FA47F6A5FA67
:1002600087F68EB9EED1F0BC01F0FF0102F0070273
:1002700032B110F8013B013A83EA010313B1F8D11E
:100280000020704701387047002D06BF35460338FF
:10029000073815F0010F07D1013015F4807F02BF38
:1002A000013015F4C03F0130F0BC0138704700BF89
:1002B00053B94AB9002908BF00281CBF4FF0FF31CD
:1002C0004FF0FF3000F074B9ADF1080C6DE904CEC9
:1002D00000F006F8DDF804E0DDE9022304B0704721
:1002E0002DE9F047089D04468E46002B4DD18A42E9
:1002F000944669D9B2FA82F252B101FA02F3C2F11C
:10030000200120FA01F10CFA02FC41EA030E9440AC
:100310004FEA1C48210CBEFBF8F61FFA8CF708FBCD
:1003200016E341EA034306FB07F199420AD91CEBA5
:10033000030306F1FF3080F01F81994240F21C81D7
:10034000023E63445B1AA4B2B3FBF8F008FB10331F
:1003500044EA034400FB07F7A7420AD91CEB040454
:1003600000F1FF3380F00A81A74240F20781644424
:10037000023840EA0640E41B00261DB1D4400023A9
:10038000C5E900433146BDE8F0878B4209D9002D0D
:1003900000F0EF800026C5E9000130463146BDE897
:1003A000F087B3FA83F6002E4AD18B4202D3824201
:1003B00000F2F980841A61EB030301209E46002DB0
:1003C000E0D0C5E9004EDDE702B9FFDEB2FA82F205
:1003D000002A40F09280A1EB0C014FEA1C471FFA63
:1003E0008CFE0126200CB1FBF7F307FB131140EA4A
:1003F00001410EFB03F0884208D91CEB010103F117
:10040000FF3802D2884200F2CB804346091AA4B2D8
:10041000B1FBF7F007FB101144EA01440EFB00FEAC
:10042000A64508D91CEB040400F1FF3102D2A64511
:1004300000F2BB800846A4EB0E0440EA03409CE7B0
:10044000C6F12007B34022FA07FC4CEA030C20FA5D
:1004500007F401FA06F31C43F9404FEA1C4900FA7D
:1004600006F3B1FBF9F8200C1FFA8CFE09FB1811FA
:1004700040EA014108FB0EF0884202FA06F20BD96D
:100480001CEB010108F1FF3A80F08880884240F2BD
:100490008580A8F102086144091AA4B2B1FBF9F001
:1004A00009FB101144EA014100FB0EFE8E4508D9FC
:1004B0001CEB010100F1FF346CD28E456AD9023881
:1004C000614440EA0840A0FB0294A1EB0E01A14266
:1004D000C846A64656D353D05DB1B3EB080261EBD4
:1004E0000E0101FA07F722FA06F3F1401F43C5E9AE
:1004F000007100263146BDE8F087C2F12003D840E4
:100500000CFA02FC21FA03F3914001434FEA1C4725
:100510001FFA8CFEB3FBF7F007FB10360B0C43EA17
:10052000064300FB0EF69E4204FA02F408D91CEBC7
:10053000030300F1FF382FD29E422DD902386344C5
:100540009B1B89B2B3FBF7F607FB163341EA034165
:1005500006FB0EF38B4208D91CEB010106F1FF38B4
:1005600016D28B4214D9023E6144C91A46EA0046AB
:1005700038E72E46284605E70646E3E61846F8E63D
:100580004B45A9D2B9EB020864EB0C0E0138A3E786
:100590004646EAE7204694E74046D1E7D0467BE767
:1005A000023B614432E7304609E76444023842E7DF
:1005B000704700BF00B58BB00022059206920792EB
:1005C0000892099201921A4B196B41F004011963C8
:1005D000196B01F00401019101990292196B41F02C
:1005E00080011963196B01F0800102910299039255
:1005F000196B41F001011963196B01F001010391BD
:10060000039904921A6B42F002021A631B6B03F007
:1006100002030493049B4FF4005305934FF4041317
:10062000069305A9034801F043FB0BB05DF804FBFA
:100630000038024000080240810FC0F305620C4BF5
:10064000595C5140C0F3854C5A5C82EA0C02C0F3FD
:10065000053C995C81EA0C01C0F3851C5A5C82EA76
:100660000C0200F03F009A5C5040185C704700BFDD
:100670000400002008B5054B834200D008BD0722C6
:100680000349044800F036FDF8E700BFE001002010
:10069000D40000208801002072B6FEE7F0B585B0D6
:1006A0005849CB78DB02584803600A7903EBC20350
:1006B00003604A7903EB52130360C2F3C100534C49
:1006C0002070D20002F03802514D2A708C7902EB72
:1006D00054142C7000074F4A1060184410608000BA
:1006E0001060C3F301454C4A1570190A517093709C
:1006F000FFF7A2FF844233D0484A137801331370C6
:10070000454A464B1B78D370454B4649464802F054
:1007100073FC3D4B1E683D4B1F783D4B1D783D4B98
:100720001868FFF789FF85421FD0404B404C3B4A79
:10073000127803920293019000953B4632463D4960
:10074000204602F015FF6423322221463A4802F087
:10075000ACF860B9394B1B78002B47D105B0F0BD20
:1007600045F010052C4B1D70CAE7354BDEE7FFF74F
:1007700093FF6423022233492F4802F096F8D0B940
:10078000624204F0030302F0030258BF5342032BFA
:1007900013D06D080134072C19DC1A4B9B5D2B42DA
:1007A000E7D0642302222849234802F07EF800287B
:1007B000E6D0FFF771FFFFF76FFF642302222349A2
:1007C0001D4802F072F80028E3D0FFF765FF6423AC
:1007D00004221F49184802F068F828B90136062E8D
:1007E00006DC00248025D6E7FFF756FF0026F6E753
:1007F000642302221749104802F057F80028ADD0B0
:10080000FFF74AFFD4000020580100205C010020BF
:1008100056010020D0000020000100200000002030
:10082000200100200801002060010020803E000817
:10083000240100209C3E0008280200206C020020B9
:10084000903E0008BC3E0008B83E0008C03E0008CC
:10085000C43E0008C83E000810B582B0194C1A4BBF
:1008600022460021194802F045FC2369042B01D0DF
:1008700002B010BD144A11780B0403F470235078B1
:1008800003EB0023927813444FF4B47203FB02F29B
:10089000920C11F0100F13D00D490B48C0780D4C7D
:1008A000019000910C49204602F062FE642332223E
:1008B00021460A4801F0F9FF0028D9D0FFF7ECFEE5
:1008C0000749EAE7E4000020DC0000206001002086
:1008D000DC3E000824010020E43E0008280200203D
:1008E000CC3E000808B50F480F4B03604FF48273ED
:1008F00043604FF4806383600023C360022202617F
:10090000012242614FF4007282612022C2610362BF
:10091000436283620A23C36200F016FB00B908BD7C
:10092000FFF7BAFE880100200030014008B50B48EF
:100930000B4B03604FF4E133436000238360C360DB
:100940004FF4806202610C2242618361C36101F055
:100950007DFF00B908BDFFF79FFE00BF2802002001
:100960000044004000B587B0002302930393049332
:1009700005930093019314484FF08042026041F6C2
:100980003F7242608360C722C2600361836101F0ED
:1009900029FD90B94FF48053029302A90A4801F04F
:1009A0005AFD60B90023009301936946064801F09F
:1009B000D1FD30B907B05DF804FBFFF76DFEFFF71E
:1009C0006BFEFFF769FE00BFE001002000B58BB0B1
:1009D0001748184B03601223436000238360C360F1
:1009E0004FF4803202614FF4801242610376437605
:1009F0008376C3760377437702F08EF9B0B901228C
:100A00000892122305930023049348F6C001009135
:100A10000193029103930693079214230993694665
:100A2000034802F01FFA0BB05DF804FBFFF734FE39
:100A3000600100200064004000B595B03422002120
:100A400007A802F08DFD00230293039304930593FE
:100A500006930093224A116C41F080511164126C8C
:100A600002F080520092009A01931E4A116841F4EC
:100A700040411160126802F440420192019A022240
:100A8000079201210A9110210B910D920E930823D8
:100A90000F93B423109311921292139207A800F0AF
:100AA000E5FEB0B901F04EFAA8B90F230293022374
:100AB0000393002304934FF4A05305934FF4805302
:100AC0000693052102A800F03BFD30B915B05DF892
:100AD00004FBFFF7E1FDFFF7DFFDFFF7DDFD00BFE2
:100AE000003802400070004008B501F0FBFAFFF743
:100AF000A3FFFFF75FFDFFF7F5FEFFF717FFFFF717
:100B000031FFFFF763FF094C204602F047FA02214C
:100B1000204602F094FB064B04221A6100229A60E0
:100B2000DA6040F203121A60FEE700BF60010020A5
:100B300008010020FEE7FEE7FEE7FEE7FEE770475C
:100B40007047704708B501F0E7FA08BD08B50248DC
:100B500002F093FB08BD00BF6001002008B5024809
:100B600001F01FFB08BD00BFE001002008B50248EE
:100B700000F04CFC08BD00BF8801002008B5024809
:100B800001F08AFF08BD00BF2802002000B583B035
:100B9000002100910C4B5A6C42F480425A645A6C0A
:100BA00002F480420092009A01911A6C42F0805245
:100BB0001A641B6C03F080530193019B072001F022
:100BC000FFF903B05DF804FB0038024010B588B0AF
:100BD0000023039304930593069307930268194B2C
:100BE0009A4201D008B010BD0024019403F5EA3305
:100BF0001A6C42F000721A641A6C02F000720192D0
:100C0000019A02941A6B42F001021A631B6B03F003
:100C100001030293029B4FF4C053039302230493F6
:100C2000032306930923079303A9074801F040F81B
:100C300022462146142001F0D5F9142001F00AFAC9
:100C4000D0E700BF006400400000024010B588B04B
:100C50000023039304930593069307930268184BAC
:100C60009A4201D008B010BD0024019403F58433EA
:100C70005A6C42F480525A645A6C02F480520192C7
:100C8000019A02941A6B42F001021A631B6B03F083
:100C900001030293029B6023039302230493032323
:100CA00006930523079303A9064801F001F822469D
:100CB0002146232001F096F9232001F0CBF9D1E75A
:100CC00000300140000002400368B3F1804F00D0C3
:100CD000704700B583B00021019103F50E331A6C03
:100CE00042F001021A641B6C03F001030193019BA3
:100CF0000A461C2001F076F91C2001F0ABF903B084
:100D00005DF804FB10B588B00023039304930593AA
:100D1000069307930268184B9A4201D008B010BDA1
:100D20000024019403F5FA331A6C42F400321A6479
:100D30001A6C02F400320192019A02941A6B42F08A
:100D400001021A631B6B03F001030293029B0C2345
:100D5000039302230493032306930723079303A912
:100D6000064800F0A5FF22462146262001F03AF968
:100D7000262001F06FF9D1E7004400400000024056
:100D80002DE9F04782B00546884617461E4601F019
:100D9000CFF90A9B1B1A03EB060901F0C9F9824639
:100DA0002B4B1B68C3F3CB3309FB03F301932B6875
:100DB0009C6838EA04030CBF4FF0010C4FF0000CA4
:100DC000BC4540D0B6F1FF3FF1D001F0B1F9A0EB46
:100DD0000A0048450AD2B9F1000F07D0019A02B1C2
:100DE0004A46019B013B01939146E0E72A6853681C
:100DF00023F0E00353606B68B3F5827F0BD0AB6ADE
:100E0000B3F5005F14D0012385F85130002385F835
:100E10005030032018E0AB68B3F5004F02D0B3F5B3
:100E2000806FECD12A68136823F040031360E6E773
:100E30002A68136823F4005313602A68136843F484
:100E400000531360DFE7002002B0BDE8F08700BF69
:100E50004C00002010B584B00446164B1868164BA1
:100E6000A3FB0030400D4FF47A7303FB00F00390B6
:100E70006368B3F5827F0BD0039BBBB1039B013B3F
:100E8000039323689B6813F0800FF5D100200EE0D8
:100E900000920B46002280212046FFF771FF30B1FF
:100EA000636D43F020036365032000E0002004B07D
:100EB00010BD00BF4C000020819F5E1610B582B0AF
:100EC00004460B464168B1F5827F14D06168B1F5E4
:100ED000827F2AD1A168B1F5806F19D000920022DB
:100EE00080212046FFF74CFF30B3636D43F02003B1
:100EF0006365032020E08168B1F5004F02D0B1F5B1
:100F0000806FE3D12068016821F040010160DDE7D6
:100F10000092002201212046FFF732FF60B1636D8D
:100F200043F020036365032006E0009200220121C4
:100F30002046FFF725FF08B902B010BD636D43F0EE
:100F4000200363650320F7E700285AD010B5044654
:100F5000436A33B94368B3F5827F05D00023C36188
:100F600002E00023036143610023A36294F851303F
:100F7000002B40D0022384F851302268136823F0FC
:100F800040031360636803F48273A26802F40442AE
:100F90001343E26802F400621343226902F0020282
:100FA0001343626902F001021343A26902F4007262
:100FB0001343E26902F038021343226A02F080020E
:100FC0001343A26A02F40052216813430B60638B3F
:100FD00003F00403626A02F01002216813434B60BD
:100FE0002268D36923F40063D36100206065012384
:100FF00084F8513010BD84F850302046FFF726FEAB
:10100000B8E7012070470000844690F8500001289E
:1010100065D010B401208CF850009CF85100C0B28B
:10102000DCF80440012808D0B4F5827F44D1DCF814
:101030000840002C47D1042847D1002947D0002A76
:1010400047D0002B47D09CF85100C0B2042802D0F2
:1010500005208CF851000020CCF85400CCF830105A
:10106000ACF83430ACF83630CCF83820ACF83C3042
:10107000ACF83E30DCF80C30BBB11A4BCCF8403049
:10108000194BCCF84430DCF80020536843F0E003FF
:101090005360DCF800301A6812F0400F1DD11A6856
:1010A00042F040021A60002007E0104BCCF84030BC
:1010B0000F4BCCF84430E6E7022000238CF8503088
:1010C0005DF8044B70470220F7E70220F5E70120A6
:1010D000F3E70120F1E70120EFE70020EDE7022030
:1010E000704700BFD51300089D1300086513000862
:1010F0002D13000808B5844683681BB94068B0F515
:10110000827F3ED09CF8500001285BD001208CF8F3
:1011100050009CF85100C0B201284CD100294BD09E
:10112000002A49D004208CF851000020CCF854004B
:10113000CCF83810ACF83C20ACF83E20CCF83000AD
:10114000ACF83400ACF83600CCF84400DCF80C20E5
:1011500002B31D4ACCF84020B3F5004F1ED0DCF896
:101160000020536843F060035360DCF800301A68D5
:1011700012F0400F24D11A6842F040021A60002099
:101180001AE004238CF8513013460A466046FFF7F4
:101190003BFF14E00D4ACCF84020DDE7DCF80020EE
:1011A000136823F040031360DCF80020136823F475
:1011B00080431360D3E7022000238CF8503008BD31
:1011C0000020F9E70220FAE7531200082B1200086A
:1011D0007047704710B582B004460268536823F028
:1011E0006003536000F0A4FF024664212046FFF72D
:1011F00065FE18B1636D43F020036365A36833B9DE
:1012000001932368DA6801929B680193019B012393
:1012100084F85130636D23B92046FFF73FFA02B0DE
:1012200010BD2046FFF7D5FFF9E708B50268836BCC
:10123000127B1A70836B01338363C38F9BB2013BB4
:101240009BB2C387C38F9BB203B108BDFFF7C2FF38
:10125000FBE708B50368DA68836B1A80836B023397
:101260008363C38F9BB2013B9BB2C387C38F9BB287
:1012700003B108BDFFF7AEFFFBE7000010B582B079
:101280000446284B1B68284AA2FB03235B0A6422FE
:1012900002FB03F3019300F04BFF024621684B6809
:1012A00023F020034B60019B43B1019B013B019361
:1012B00023689B6813F0020FF5D003E0636D43F0E1
:1012C0002003636564212046FFF7C4FD18B1636DF8
:1012D00043F020036365A36833B900932368DA6899
:1012E00000929B680093009B636D9BB994F851300A
:1012F000DBB2042B07D0012384F851302046FFF7DE
:1013000067FF02B010BD012384F851302046FFF77B
:10131000C5F9F6E7012384F851302046FFF759FF5D
:10132000EFE700BF4C000020F119760508B5026B0D
:10133000036812781A73036B01330363C38E9BB285
:10134000013B9BB2C386C38E9BB23BB90268536814
:1013500023F080035360C38F9BB203B108BDFFF736
:101360008DFFFBE708B50268836B127B1A70836BF5
:1013700001338363C38F9BB2013B9BB2C387C38F8F
:101380009BB23BB90268536823F060035360C38E7D
:101390009BB203B108BDFFF771FFFBE708B5026B15
:1013A00003681288DA60036B02330363C38E9BB257
:1013B000013B9BB2C386C38E9BB23BB902685368A4
:1013C00023F080035360C38F9BB203B108BDFFF7C6
:1013D00055FFFBE708B50368DA68836B1A80836BF7
:1013E00002338363C38F9BB2013B9BB2C387C38F1E
:1013F0009BB23BB90268536823F040035360C38E2D
:101400009BB203B108BDFFF739FFFBE730B585B0EC
:101410000446026851689368C3F3801013F0400FCC
:1014200005D113F0010F02D011F0400F69D113F074
:10143000020F02D011F0800F67D1C3F3401513F0F3
:10144000200F03D110B913F4807F61D011F0200F69
:101450005ED078B194F85100C0B203285AD0606DC4
:1014600040F00400606500200090D0680090906813
:101470000090009865B1606D40F00100606500204B
:10148000029090680290106820F040001060029A6C
:1014900013F4807F09D0636D43F008036365002374
:1014A000039323689B680393039B636D002B2FD0EA
:1014B0002268536823F0E0035360012384F851301D
:1014C00011F0030F2ED02268536823F003035360FA
:1014D000E36C4BB1154A1A65E06C00F01FFD18B1C2
:1014E000636D43F040036365A36C8BB10F4A1A65CB
:1014F000A06C00F013FD58B1636D43F040036365C9
:1015000006E0236C2046984702E0636C204698472B
:1015100005B030BD00230193D36801939368019314
:10152000019BF5E72046FFF754FEF1E7311500086F
:1015300008B5806B0023C387C386FFF74AFE08BD4A
:10154000002800F09B8070B50D4604464F4B1B6889
:1015500003F00F038B4208D2CBB24C4A13701368CE
:1015600003F00F038B4240F08B80236813F0020FCF
:1015700017D013F0040F04D0454A936843F4E053A6
:101580009360236813F0080F04D0414A936843F432
:10159000604393603E4A936823F0F003A1680B43D5
:1015A0009360236813F0010F32D06368012B21D0C0
:1015B0009A1E012A25D9364A126812F0020F61D00C
:1015C00033498A6822F0030213438B6000F0B0FDB8
:1015D00006462F4B9B6803F00C036268B3EB820F47
:1015E00016D000F0A5FD801B41F288339842F0D957
:1015F000032042E0264A126812F4003FE0D10120A5
:101600003BE0234A126812F0007FD9D1012034E078
:101610001E4B1B6803F00F03AB4207D9EAB21B4B0A
:101620001A701B6803F00F03AB422DD1236813F02F
:10163000040F06D0164A936823F4E053E1680B4385
:101640009360236813F0080F07D0114A936823F4BE
:101650006043216943EAC103936000F047F80C4BF3
:101660009B68C3F303130B4AD35CD8400A4B186042
:101670000A4B186800F010FD002070BD0120704773
:101680000120FAE70120F8E70120F6E7003C0240DC
:1016900000380240043F00084C00002048000020B1
:1016A000014B1868704700BF4C00002008B5FFF7D9
:1016B000F7FF044B9B68C3F38223034AD35CD840F3
:1016C00008BD00BF00380240143F000808B5FFF70E
:1016D000E7FF044B9B68C3F34233034AD35CD84013
:1016E00008BD00BF00380240143F000808B55C4B3D
:1016F0009B6803F00C03082B07D00C2B5BD0042B4A
:1017000001D0584808BD5848FCE7554B5A6802F0CC
:101710003F025B6813F4800F2AD0514B5968C1F324
:10172000881C4FEA4C11B1EB0C006EEB0E0E4FEA29
:101730008E1343EA90638101091A63EB0E03DB0009
:1017400043EA5173C90011EB0C0C43F10003590239
:1017500000234FEA4C2041EADC51FEF7A9FD404B43
:101760005B68C3F3014301335B00B0FBF3F0C9E7EF
:101770003B4B5968C1F3881C4FEA4C11B1EB0C008C
:101780006EEB0E0E4FEA8E1343EA90638101091A45
:1017900063EB0E03DB0043EA5173C90011EB0C0C41
:1017A00043F10003990200234FEA8C2041EA9C5147
:1017B000FEF77EFDD3E72A4B5A6802F03F025B68D2
:1017C00013F4800F28D0264B5968C1F3881C4FEAC8
:1017D0004C11B1EB0C006EEB0E0E4FEA8E1343EA88
:1017E00090638101091A63EB0E03DB0043EA517336
:1017F000C90011EB0C0C43F10003590200234FEA1E
:101800004C2041EADC51FEF753FD154B5B68C3F3F6
:101810000273B0FBF3F075E7114B5968C1F3881CF4
:101820004FEA4C11B1EB0C006EEB0E0E4FEA8E132B
:1018300043EA90638101091A63EB0E03DB0043EA7C
:101840005173C90011EB0C0C43F100039902002302
:101850004FEA8C2041EA9C51FEF72AFDD5E700BFF4
:10186000003802400024F40000127A00002800F042
:10187000018270B582B00446036813F0010F41D0B5
:10188000994B9B6803F00C03042B32D0964B9B685A
:1018900003F00C03082B27D0934B9B6803F00C0339
:1018A0000C2B59D06368B3F5803F5BD0B3F5A02F04
:1018B0005ED08D4B1A6822F480321A601A6822F4C6
:1018C00080221A606368002B5CD000F031FC054672
:1018D000854B1B6813F4003F14D100F029FC401B1A
:1018E0006428F5D90320CCE17F4B5B6813F4800FAB
:1018F000D2D07D4B1B6813F4003F03D06368002BEC
:1019000000F0BA81236813F0020F60D0764B9B6819
:1019100013F00C0F4AD0744B9B6803F00C03082B98
:101920003FD0714B9B6803F00C030C2B69D0E3682C
:10193000002B75D06D4B01221A6000F0F9FB0546B3
:10194000694B1B6813F0020F61D100F0F1FB401BE3
:101950000228F5D9032094E1634B5B6813F4800FF0
:10196000A0D0C6E7604A136843F480331360A9E748
:101970005D4B1A6842F480221A601A6842F4803281
:101980001A609FE700F0D4FB0546574B1B6813F421
:10199000003FB7D000F0CCFB401B6428F5D90320F2
:1019A0006FE1514B5B6813F4800FBAD14E4B1B684B
:1019B00013F0020F03D0E368012B40F05F814A4A25
:1019C000136823F0F803216943EAC1031360236815
:1019D00013F0080F49D06369002B33D0434B012229
:1019E000C3F8802E00F0A4FB05463F4B5B6F13F05D
:1019F000020F3AD100F09CFB401B0228F5D90320CE
:101A00003FE1394B5B6813F4800F90D1CEE7364A43
:101A1000136823F0F803216943EAC1031360D6E792
:101A2000324B00221A6000F083FB05462E4B1B68E8
:101A300013F0020FCBD000F07BFB401B0228F5D93E
:101A400003201EE1294B0022C3F8802E00F070FB1A
:101A50000546254B5B6F13F0020F06D000F068FBC4
:101A6000401B0228F5D903200BE1236813F0040F73
:101A700076D01D4B1B6C13F0805F33D10023019394
:101A8000194B1A6C42F080521A641B6C03F080539D
:101A90000193019B0125164B1B6813F4807F29D00D
:101AA000A368012B3AD0052B3ED00F4B1A6F22F0C2
:101AB00001021A671A6F22F004021A67A368002B4A
:101AC0003CD000F035FB0646074B1B6F13F0020FAE
:101AD00045D100F02DFB801B41F288339842F3D9A9
:101AE0000320CEE00025D6E7003802400000474240
:101AF000007000406B4A136843F48073136000F079
:101B000017FB0646674B1B6813F4807FC8D100F0B3
:101B10000FFB801B0228F5D90320B2E0624A136F45
:101B200043F001031367C9E75F4B1A6F42F00402E9
:101B30001A671A6F42F001021A67BFE700F0F8FA5D
:101B40000646594B1B6F13F0020F08D000F0F0FA55
:101B5000801B41F288339842F3D9032091E0EDB91C
:101B6000A369002B00F08C804F4A926802F00C02AF
:101B7000082A54D0022B17D04C4B00221A6600F0D2
:101B8000D7FA0446484B1B6813F0007F45D000F09D
:101B9000CFFA001B0228F5D9032072E0424A136CE9
:101BA00023F080531364DBE7404B00221A6600F0F9
:101BB000BFFA05463C4B1B6813F0007F06D000F0CF
:101BC000B7FA401B0228F5D903205AE0E369226ADC
:101BD0001343626A43EA8213A26A5208013A43EA53
:101BE0000243E26A43EA0263226B43EA02732E4A2B
:101BF00053602E4B01221A6600F09AFA04462A4BD3
:101C00001B6813F0007F06D100F092FA001B022837
:101C1000F5D9032035E0002033E0002031E0012B2E
:101C200031D0214B5B6803F48001E26991422CD1F1
:101C300003F03F02216A8A4229D1616A47F6C072E5
:101C40001A40B2EB811F24D103F44031A26A52083A
:101C5000013AB1EB024F1ED103F07062E16AB2EBC0
:101C6000016F1AD103F0E043226BB3EB027F16D170
:101C7000002006E001207047012002E0012000E082
:101C8000002002B070BD0120FBE70120F9E7012030
:101C9000F7E70120F5E70120F3E70120F1E7012054
:101CA000EFE700BF007000400038024000004742EC
:101CB00000230F2B00F2DE8070B582B060E08568F3
:101CC0005E000324B44025EA0405CC68B4402C43EC
:101CD0008460456825EA02054C68C4F300129A4006
:101CE0002A4342605AE0DC08083450F8246003F0CC
:101CF000070295000F22AA4026EA020E0A69AA40AE
:101D000042EA0E0240F824205CE0062200E00022B5
:101D100002FA0EF22A430234574D45F82420574A5E
:101D200014686FEA0C0224EA0C054E6816F4803F32
:101D300001D04CEA0405514C2560646802EA0405B0
:101D40004E6816F4003F01D04CEA04054B4C656028
:101D5000A46802EA04054E6816F4801F01D04CEA1C
:101D60000405464CA560E46822404D6815F4001F48
:101D700001D04CEA0402414CE26001330F2B77D8CA
:101D800001229A400C6804EA020C32EA0404F4D1FD
:101D90004C6804F00304013C012C90D94A6802F01D
:101DA0000302032A09D0C4685D000322AA4024EA82
:101DB00002048A68AA402243C2604A6802F0030211
:101DC000022A90D004684FEA430E032202FA0EF270
:101DD00024EA02044A6802F0030202FA0EF22243E5
:101DE00002604A6812F4403FC7D000220192244AA0
:101DF000546C44F480445464526C02F48042019266
:101E0000019A9C08A51C1C4A52F8255003F00302B5
:101E10004FEA820E0F2202FA0EF225EA0205194A53
:101E200090423FF474AF02F58062904216D002F502
:101E30008062904214D002F58062904212D002F586
:101E40008062904210D002F5806290420ED002F57E
:101E5000806290423FF459AF072259E7012257E7C9
:101E6000022255E7032253E7042251E705224FE7F8
:101E700002B070BD704700BF00380140003C014017
:101E8000003802400000024070B50446866D00F044
:101E90004FF994F83530DBB2022B06D0802363650E
:101EA000002384F83430012070BD05462268136891
:101EB00023F0160313602268536923F080035361F3
:101EC000236CE3B12268136823F0080313602268CF
:101ED000136823F00103136023681B6813F0010FDC
:101EE00011D000F025F9431B052BF5D9202363659C
:101EF000032084F83500002384F83430D4E7A36C41
:101F0000002BDFD1E3E7E26D3F239340B360012371
:101F100084F83530002084F83400C5E790F8353077
:101F2000DBB2022B03D080234365012070470523D9
:101F300080F835300268136823F001031360002035
:101F40007047000010B582B000230193194B1A6C42
:101F500042F080521A641B6C03F080530193019B82
:101F6000154B01221A6400F0E3F80446134B5B683A
:101F700013F4803F08D100F0DBF8001BB0F57A7F46
:101F8000F4D9032002B010BD0B4B01225A6400F0BB
:101F9000CFF80446094B5B6813F4003F07D100F00B
:101FA000C7F8001BB0F57A7FF4D90320EAE70020D8
:101FB000E8E700BF0038024000000E420070004019
:101FC000074AD36823F4E0631B041B0C000200F4EF
:101FD000E060034343F0BF6343F40033D3607047D2
:101FE00000ED00E000B5194BDB68C3F30223C3F139
:101FF000070CBCF1040F28BF4FF0040C03F1040ED2
:10200000BEF1060F18D9033B4FF0FF3E0EFA0CFC51
:1020100021EA0C0199400EFA03F322EA0303194363
:1020200000280BDB0901C9B200F1604000F56140F6
:1020300080F800135DF804FB0023E5E700F00F00D3
:102040000901C9B2024B1954F4E700BF00ED00E0EA
:1020500014ED00E0002807DB00F01F024009012317
:102060009340024A42F82030704700BF00E100E090
:102070000138B0F1807F0BD24FF0E0235861054A60
:10208000F02182F823100020986107221A6170471E
:102090000120704700ED00E010B504460E4B1878A3
:1020A0004FF47A73B3FBF0F30C4A1068B0FBF3F013
:1020B000FFF7DEFF68B90F2C01D901200AE00022EA
:1020C00021464FF0FF30FFF78DFF054B1C600020CD
:1020D00000E0012010BD00BF440000204C000020A3
:1020E0004800002008B50B4B1A6842F400721A60D1
:1020F0001A6842F480621A601A6842F480721A60A8
:102100000320FFF75DFF0020FFF7C6FFFEF73EFD4F
:10211000002008BD003C0240034A1168034B1B78B5
:102120000B441360704700BF700200204400002081
:10213000014B1868704700BF7002002010B4036A9A
:10214000046A24F001040462846924F0F00C4CEA6F
:10215000021223F00A030B43826103625DF8044B11
:10216000704710B4046A24F0100404628469036A9E
:1021700024F4704C4CEA023223F0A00343EA01132A
:10218000826103625DF8044B7047836823F070033B
:102190000B4343F0070383607047704770477047F5
:1021A000704710B5044603681A6912F0020F11D087
:1021B000DA6812F0020F0DD06FF002021A610123EB
:1021C000037703689B6913F0030F70D0FFF7E6FFF6
:1021D0000023237723681A6912F0040F12D0DA68FB
:1021E00012F0040F0ED06FF004021A61022323775D
:1021F00023689B6913F4407F5FD02046FFF7CEFF32
:102200000023237723681A6912F0080F12D0DA68C6
:1022100012F0080F0ED06FF008021A610423237722
:102220002368DB6913F0030F4ED02046FFF7B6FF9B
:102230000023237723681A6912F0100F12D0DA688E
:1022400012F0100F0ED06FF010021A6108232377DE
:102250002368DB6913F4407F3DD02046FFF79EFFE3
:102260000023237723681A6912F0010F03D0DA687C
:1022700012F0010F36D123681A6912F0800F03D0D3
:10228000DA6812F0800F34D123681A6912F0400F17
:1022900003D0DA6812F0400F32D123681A6912F0C5
:1022A000200F03D0DA6812F0200F30D110BDFFF7F5
:1022B00074FF2046FFF773FF8AE72046FFF76DFFA4
:1022C0002046FFF76CFF9BE72046FFF766FF20469E
:1022D000FFF765FFACE72046FFF75FFF2046FFF7FB
:1022E0005EFFBDE76FF001021A612046FEF7C2F9FA
:1022F000C1E76FF080021A61204600F072F9C3E76F
:102300006FF040021A612046FFF74AFFC5E76FF001
:1023100020021A61204600F063F9C7E70368304ADB
:10232000904212D0B0F1804F0FD0A2F57C42904283
:102330000BD002F58062904207D002F58062904295
:1023400003D002F57842904203D123F070034A682B
:102350001343234A90422AD0B0F1804F27D0A2F5F0
:102360007C42904223D002F5806290421FD002F559
:10237000806290421BD002F57842904217D002F55D
:102380007052904213D002F5806290420FD002F555
:10239000806290420BD0A2F59832904207D002F5AD
:1023A0008062904203D002F58062904203D123F410
:1023B0004073CA68134323F080034A6913430360E0
:1023C0008B68C3620B688362054B984203D003F5A8
:1023D0008063984201D10B69036301234361704715
:1023E0000000014040B310B5044690F83D30F3B111
:1023F000022384F83D30214651F8040BFFF78EFF8D
:10240000012384F8463084F83E3084F83F3084F865
:10241000403084F8413084F8423084F8433084F806
:10242000443084F8453084F83D30002010BD80F8F9
:102430003C30FEF749FCDBE70120704710B48468AC
:1024400024F47F4C42EA03220A4342EA0C028260EF
:102450005DF8044B704790F83C30012B78D010B5F4
:102460000446012380F83C30022380F83D300268A6
:10247000936823F47F4323F0770393600B68602B0A
:102480004CD029D8402B54D00CD9502B22D1CA681B
:1024900049680068FFF752FE50212068FFF775FE7B
:1024A000002005E0202B0DD009D9302B0AD00120C7
:1024B000012384F83D30002384F83C3010BD0BB17B
:1024C000102B05D119462068FFF75FFE0020EFE7CB
:1024D0000120EDE70120EBE7B3F5805F34D0B3F5E1
:1024E000005F0CD1CB684A6889680068FFF7A6FFD7
:1024F0002268936843F4804393600020D8E7702BF0
:1025000024D1CB684A6889680068FFF797FF226882
:10251000936843F0770393600020C9E7CA6849686D
:102520000068FFF71EFE60212068FFF72EFE0020E6
:10253000BEE7CA6849680068FFF700FE40212068CE
:10254000FFF723FE0020B3E70020B1E70120AFE74B
:102550000220704790F83C30012B3DD010B401238D
:1025600080F83C30022380F83D3003685A689C684C
:1025700022F0700C0A6842EA0C025A600368174A9B
:1025800093421AD0B3F1804F17D0A2F57C42934208
:1025900013D002F5806293420FD002F5806293421D
:1025A0000BD002F57842934207D002F57052934265
:1025B00003D0A2F59432934204D124F080044A68F7
:1025C00014439C60012380F83D30002380F83C30A8
:1025D00018465DF8044B7047022070470000014028
:1025E00070477047034AD2F8883043F47003C2F84A
:1025F0008830704700ED00E0026802F10C0353E8F8
:10260000003F23F490730C3242E800310029F3D1EB
:10261000026802F1140353E8003F23F0010314326F
:1026200042E800310029F3D1036B012B05D02023B0
:1026300080F83E30002303637047026802F10C0308
:1026400053E8003F23F010030C3242E80031002928
:10265000F3D1ECE790F83D30DBB2212B01D0022022
:1026600070478368B3F5805F17D0036A5A1C026213
:102670001A7803685A60C38C9BB2013B9BB2C38437
:102680004BB90268D36823F08003D3600268D36833
:1026900043F04003D360002070470369002BE4D16E
:1026A000036A1B880268C3F308035360036A02339A
:1026B0000362E0E738B504460268136923F4405327
:1026C000C1680B4313618368026913434269134372
:1026D000C2691A430168CB6823F4164323F00C0344
:1026E0001343CB600268536923F4407381690B4341
:1026F00053610368314A934206D002F580629342E7
:1027000002D0FEF7D3FF01E0FEF7E0FFE369B3F587
:10271000004F29D00021031849411B1841F1000145
:10272000C90041EA5371DB00181863684FEA83025D
:102730004FEA937341F10001FDF7BAFD204DA5FB6F
:1027400000325109642303FB11031B013233A5FB43
:1027500003235B0903F0F00202EB011203F00F0305
:10276000216813448B6038BD0023021843EB03013A
:10277000121841F10001C90041EA5271D20010184B
:1027800041F10001626892185B41FDF791FD0C4D2B
:10279000A5FB00325109642303FB1103DB00323334
:1027A000A5FB03235B095A0002F4F87202EB011245
:1027B00003F00703216813448B60D4E70010014045
:1027C0001F85EB512DE9F84305460F4616469946FD
:1027D000DDF820802C68246837EA04030CBF4FF032
:1027E000010C4FF0000CB4452DD1B8F1FF3FF1D0F2
:1027F000B8F1000F05D0FFF79BFCA0EB09004045A6
:10280000E8D92A6802F10C0353E8003F23F4D0739F
:102810000C3242E800310029F3D12A6802F1140396
:1028200053E8003F23F00103143242E8003100294D
:10283000F3D1202385F83D3085F83E30002385F81C
:102840003C30032000E00020BDE8F88358B310B509
:10285000044690F83D300BB3242384F83D302268C1
:10286000D36823F40053D3602046FFF723FF226888
:10287000136923F4904313612268536923F02A03F8
:1028800053612268D36843F40053D360002020646E
:10289000202384F83D3084F83E3010BD80F83C3071
:1028A000FEF730FAD8E7012070472DE9F04182B0F9
:1028B0001E4690F83D30DBB2202B54D104460D4625
:1028C0009046002953D0002A53D090F83C30012B79
:1028D00051D0012380F83C3000230364212380F889
:1028E0003D30FFF725FC0746A4F82480A4F8268095
:1028F000A368B3F5805F05D04FF00008002384F88B
:102900003C3012E0236913B14FF00008F6E7A84607
:102910000025F3E738F8023B2268C3F3080353604D
:10292000E28C92B2013A92B2E284E38C9BB273B130
:1029300000963B46002280212046FFF743FFE0B986
:10294000002DE7D015F8012B23685A60E8E70096C0
:102950003B46002240212046FFF734FF78B9202370
:1029600084F83D3000E0022002B0BDE8F081012093
:10297000FAE70120F8E70220F6E70320F4E7032056
:10298000F2E7704708B50168CA6822F04002CA60E1
:10299000202280F83D20FFF7F4FF002008BD70479B
:1029A000704708B5806B0023C385C384FFF7F8FF29
:1029B00008BD704790F83E30DBB2222B67D18368A8
:1029C000B3F5805F4DD0826AB3F5805F04D0002BF1
:1029D00054D10369002B51D103685B681370836A7B
:1029E00001338362C38D9BB2013B9BB2C385002B35
:1029F0004FD100B583B00268D36823F02003D360C1
:102A00000268D36823F48073D3600268536923F0AB
:102A100001035361202380F83E30036B012B33D137
:102A200000230363026802F10C0353E8003F23F024
:102A300010030C3242E800310029F3D103681A6810
:102A400012F0100F06D0002201921A6801925B6802
:102A50000193019B818DFFF7ACFF002003B05DF86F
:102A600004FB0269002AAED1826A03685B68C3F383
:102A700008031380836A02338362B3E703685B68E9
:102A800003F07F031370AAE7FFF789FFE5E7022051
:102A9000704700207047000030B583B004460268DC
:102AA0001368D068516913F00F0505D113F0200F9A
:102AB00002D010F0200F19D12DB111F0010119D160
:102AC00010F4907F16D1216B01297DD013F0800F77
:102AD00003D010F0800F40F0158113F0400F03D0A9
:102AE00010F0400F40F0128103B030BD2046FFF7D8
:102AF00061FFF9E713F0010F06D010F4807F03D0D7
:102B0000226C42F00102226413F0040F04D019B1C8
:102B1000226C42F00202226413F0020F04D019B1B9
:102B2000226C42F00402226413F0080F07D010F068
:102B3000200F00D119B1226C42F008022264226CED
:102B4000002AD1D013F0200F02D010F0200F29D18D
:102B500023685B6903F04003226C12F0080F00D178
:102B600063B32046FFF748FD23685B6913F0400F0D
:102B700020D0226802F1140353E8003F23F0400301
:102B8000143242E800310029F3D1A36B73B1614ADA
:102B90001A65A06BFFF7C2F90028A5D0A06B036DE2
:102BA0009847A1E72046FFF705FFD1E72046FFF74A
:102BB000F7FE99E72046FFF7F3FE95E72046FFF77B
:102BC000EFFE002323648FE713F0100F3FF47EAF76
:102BD00010F0100F3FF47AAF0023019313680193B4
:102BE00053680193019B536913F0400F50D0A26BBF
:102BF00013685B689BB2002B3FF476AFA18D9942BE
:102C00007FF672AFE385D369B3F5807F37D0226852
:102C100002F10C0353E8003F23F480730C3242E8C6
:102C200000310029F3D1226802F1140353E8003F78
:102C300023F00103143242E800310029F3D1226865
:102C400002F1140353E8003F23F04003143242E83A
:102C500000310029F3D1202384F83E300023236380
:102C6000226802F10C0353E8003F23F010030C32FA
:102C700042E800310029F3D1A06BFFF705F9A18DDF
:102C8000E38D9BB2C91A89B22046FFF792FE2BE76B
:102C9000A18DE38D9BB2C91A89B2E38D9BB2002B43
:102CA0003FF422AF00293FF41FAF226802F10C036A
:102CB00053E8003F23F490730C3242E800300028C0
:102CC000F3D1226802F1140353E8003F23F001031B
:102CD000143242E800300028F3D1202384F83E303B
:102CE00000232363226802F10C0353E8003F23F022
:102CF00010030C3242E800300028F3D12046FFF7E1
:102D000058FEF1E62046FFF7A5FCEDE62046FFF76A
:102D100039FEE9E6A3290008002800F0A18038B5B3
:102D2000044690F82030D3B12268136843F00103C1
:102D30001360FFF7FDF9054623685A6812F0010F8A
:102D400010D1FFF7F5F9401B0A28F5D9636A43F45F
:102D500000336362052384F82030012038BDFDF77D
:102D600035FFE1E71A6822F002021A60FFF7E0F986
:102D7000054623685A6812F0020F0DD0FFF7D8F904
:102D8000401B0A28F5D9636A43F4003363620523C4
:102D900084F820300120E1E7227E012A3DD01A6824
:102DA00022F080021A60637E012B3BD022681368F8
:102DB00023F040031360A37E012B39D022681368EF
:102DC00023F020031360E37E012B37D022681368C1
:102DD00043F010031360237F012B35D02268136862
:102DE00023F008031360637F012B33D0226813683C
:102DF00023F004031360A368E268134322691343BA
:102E0000626913436268013A21681343CB61002071
:102E10006062012384F82030A0E71A6842F0800243
:102E20001A60C0E72268136843F040031360C2E7EA
:102E30002268136843F020031360C4E72268136814
:102E400023F010031360C6E72268136843F00803F9
:102E50001360C8E72268136843F004031360CAE7ED
:102E60000120704790F82030013BDBB2012B05D9DF
:102E7000436A43F4802343620120704730B5464BD8
:102E8000D3F8002242F00102C3F80022D3F8002256
:102E900022F47C52C3F80022D3F80022486A42EAA6
:102EA0000022C3F800224A6902F01F02012000FA42
:102EB00002F2D3F81C026FEA020C20EA0200C3F807
:102EC0001C02CB69C3B9344BD3F80C020CEA0000E6
:102ED000C3F80C028C884869CD6844EA0544483040
:102EE00043F830408C68088840EA04404C6904F19B
:102EF000480E03EBCE035860CB69012B1ED08B69C3
:102F0000002B33D12448D0F804320CEA0303C0F874
:102F100004320B698BBB2048D0F814320CEA03034F
:102F2000C0F814320B6A012B2ED01B4AD2F80032A3
:102F300023F00103C2F80032002030BD164BD3F855
:102F40000C021043C3F80C028C8848690D6844EAEF
:102F50000544483043F8304088894C698D6840EA20
:102F60000540483403EBC4035860C8E70A48D0F86A
:102F700004321343C0F80432CBE70748D0F81432C8
:102F80001343C0F81432CDE70349D1F81C321A4379
:102F9000C1F81C22C9E700BF0064004070B50446B8
:102FA00090F82050EDB2012D06D0436A43F400237F
:102FB00043620125284670BD022380F82030026854
:102FC000136823F001031360FFF7B2F80646236885
:102FD0005B6813F0010F0CD0FFF7AAF8831B0A2BD4
:102FE000F5D9636A43F400336362052384F8203023
:102FF000E0E700256562DDE730B590F820C00468A1
:10300000A4680CF1FF3C5FFA8CFCBCF1010F6BD89B
:1030100014F0E05F62D0C4F3016CBCF1020F05D97B
:10302000436A43F400034362012062E0012404FA8E
:103030000CF41C608B68002B3DD10D68CB680468D4
:1030400043EA45550CF118031B01E55003680C6970
:103050000CF1180E03EB0E135C600B7D012B35D0C9
:10306000D17993791B0443EA0163517943EA01233F
:1030700014790168234301EB0C11C1F88C31D1782C
:1030800093781B0443EA0163517843EA01231178E2
:1030900002680B4302EB0C12C2F8883102680CF193
:1030A000180C4FEA0C1C52F80C3043F0010342F8A4
:1030B0000C3000201DE04C6843EAC403CC68234375
:1030C0000CF11804240105682B51BFE7036803EBDA
:1030D0000E13596841F480715960C1E7436A43F4A3
:1030E00000134362012004E0436A43F480234362F7
:1030F000012030BD90F820C00CF1FF3C5FFA8CFC41
:10310000BCF1010F00F2958030B451B90468E46855
:1031100014F0030F10D1436A43F4001343620120FB
:1031200077E00468246914F0030F05D1436A43F47F
:103130000013436201206CE001F11B0424010568C7
:103140002C5904F004049460002C64D101F11B0498
:10315000240105682C59640D1460046801F11B0CEE
:103160004FEA0C1C54F80C4004F00204D4600468CC
:103170006444646804F00F0414610468644464687F
:10318000C4F307249461046864446468240C5461A3
:10319000026802EB0112D2F8B8211A70026802EB41
:1031A0000112D2F8B821C2F307225A70026802EB6A
:1031B0000112D2F8B821C2F307429A70026802EBFA
:1031C0000112D2F8B821120EDA70026802EB011275
:1031D000D2F8BC211A71026802EB0112D2F8BC21AC
:1031E000C2F307225A71026802EB0112D2F8BC2125
:1031F000C2F307429A71026802EB0112D2F8BC21B5
:10320000120EDA7179B90268D36843F02003D360F3
:10321000002030BC704701F11B04240105682C59C3
:10322000E408546099E70268136943F020031361CE
:10323000EEE7436A43F4802343620120704790F82D
:103240002030013BDBB2012B05D9436A43F48023D4
:10325000436201207047026853691943516100209D
:1032600070477047704770477047704770477047A6
:10327000704770477047704770472DE9F84F054613
:1032800003685C69D3F804809F68D3F80CB0D3F866
:1032900010A0D3F8189014F001063BD017F00106E7
:1032A00016D001229A6017F0020F08D117F0040F10
:1032B0000CD117F0080606D04FF4805608E0FFF74F
:1032C000D0FF002604E0FFF7CFFF01E04FF40066D7
:1032D00017F4807F0DD02B684FF480729A6017F43A
:1032E000007F40F0868017F4806F00F0868046F4FF
:1032F000005617F4803F0DD02B684FF480329A604F
:1033000017F4003F40F0838017F4802F00F0838093
:1033100046F4004614F0080F07D01BF0100F04D03D
:1033200046F400762B681022DA6014F0040F02D005
:103330001BF0080F79D114F0020F04D02B68DB6862
:1033400013F0030F78D114F0400F07D01AF0100FCC
:1033500004D046F480662B6810221A6114F0200F06
:1033600002D01AF0080F6BD114F0100F04D02B68A4
:103370001B6913F0030F6AD114F4003F02D018F058
:10338000100F68D114F4803F02D018F0080F69D1F3
:1033900014F4004F7AD018F0040F74D014F4807F26
:1033A00004D019F0010F01D046F0010614F4007F9B
:1033B00004D019F0020F01D046F0020614F4806F19
:1033C00004D019F0040F01D046F0040614F4006F85
:1033D00059D019F0700956D0B9F1400F65D058D8BE
:1033E000B9F1200F5ED0B9F1300F42D146F020067E
:1033F00044E02846FFF736FF7BE717F4006F02D062
:1034000046F4804675E72846FFF72FFF71E7284608
:10341000FFF729FF7EE717F4002F02D046F480362D
:1034200078E72846FFF722FF74E72B680822DA6066
:103430002846FFF71CFF7EE72846FDF70DFA82E7D6
:103440002B6808221A612846FFF713FF8CE72846ED
:10345000FFF70EFF90E72B6810225A602846FFF70F
:1034600009FF8FE72B6808225A602846FFF703FF01
:103470008EE7B9F1100F01D146F008062A6893696A
:1034800023F0700393612B6804225A609EB9BDE853
:10349000F88FB9F1500F0BD0B9F1600FEED146F4AF
:1034A0008076EBE746F01006E8E746F04006E5E7F1
:1034B00046F08006E2E76B6A1E436E622846FFF71D
:1034C000DBFEE4E7DFF834D00D480E490E4A002356
:1034D00002E0D458C4500433C4188C42F9D30B4AC8
:1034E0000B4C002301E013600432A242FBD3FFF730
:1034F00079F800F011F8FDF7F7FA704700000220A4
:1035000000000020B4000020603F0008B40000204C
:1035100088020020FEE7000070B50D4D0D4C641BC5
:10352000A4100026A64209D10B4D0C4C00F09CFCC7
:10353000641BA4100026A64205D170BD55F8043BBB
:1035400098470136EEE755F8043B98470136F2E715
:10355000583F0008583F0008583F00085C3F0008EB
:1035600002440346934200D1704703F8011BF9E778
:103570000EB400B59CB01DAB029006906FF00041F8
:10358000094807910491094953F8042B05910068F3
:10359000019302A900F068F8029B00221A701CB087
:1035A0005DF804EB03B07047500000200802FFFFF5
:1035B0002DE9F0478E689E4282460C4690461F4693
:1035C00038D88A8912F4906F32D025680969A5EB42
:1035D0000109656905EB450505EBD57501334B44DC
:1035E0006D109D4238BF1D46530531D5294600F068
:1035F00063FB064650B90C23CAF80030A38943F098
:103600004003A3814FF0FF30BDE8F08721694A46AF
:1036100000F0BEFAA38923F4906343F08003A381F2
:10362000266165614E44A5EB09052660A5603E460E
:10363000BE4200D93E4620683246414600F0B6FA06
:10364000A3689B1BA3602368334423600020DBE74F
:103650002A4600F0A5FB06460028E1D12169504624
:1036600000F0BEFAC7E700002DE9F04F98468B89BD
:103670001B069DB007460D4614460ED50B6963B96F
:10368000402100F019FB2860286120B90C233B6021
:103690004FF0FF30D1E040236B61002309932023DA
:1036A0008DF82930CDF80C803023DFF8A8818DF813
:1036B0002A304FF0010923469A4613F8012B0AB12C
:1036C000252AF9D1BAEB040B0BD05B4622462946DA
:1036D0003846FFF76DFF013000F0AA80099A5A447E
:1036E00009929AF80030002B00F0A28000234FF0DE
:1036F000FF32CDE905230AF1010A049307938DF8FF
:1037000053301A935446052214F8011B5148FCF714
:103710007FFD049AD8B9D00644BF20238DF85330DA
:10372000110744BF2B238DF853309AF800302A2B11
:1037300015D0079A544600204FF00A0C214611F884
:10374000013B303B092B4ED9B0B1079214E0A0EBFE
:10375000080309FA03F313430493A246D2E7039B39
:10376000191D1B680391002BBBBF5B4242F0020294
:1037700007930793B8BF049223782E2B0CD163785C
:103780002A2B35D1039B1A1D1B680392002BB8BF4F
:103790004FF0FF3302340593DFF8C8A021780322ED
:1037A0005046FCF735FD40B14023A0EB0A0003FA78
:1037B00000F0049B03430134049314F8011B2648D2
:1037C0008DF828100622FCF723FD002838D0234B63
:1037D0001BBB039B073323F0070308330393099BA9
:1037E0003344099367E70CFB02320C460120A5E73E
:1037F00000230134059319464FF00A0C204610F8B7
:10380000012B303A092A03D9002BC5D00591C3E713
:103810000CFB012104460123F0E703AB00932A4689
:103820000F4B04A93846AFF30080421C0646D6D1A0
:10383000AB895B063FF52CAF09981DB0BDE8F08F52
:1038400003AB00932A46064B04A9384600F07AF8E9
:10385000EBE700BF1C3F0008263F00080000000007
:10386000B1350008223F00082DE9F0471646994679
:103870008A680B69DDF820809342B8BF1346336035
:1038800091F8432007460C460AB1013333602368A0
:10389000990642BF336802333360256815F0060588
:1038A00006D104F1190AE36832689B1AAB4226DCA0
:1038B00094F84320131E226818BF012392062BD4CC
:1038C00004F1430249463846C04701301ED0236800
:1038D000E568326803F00603042B08BFAD1AA3683D
:1038E00022690CBF25EAE57500259342C4BF9B1AE7
:1038F000ED1800261A34B5421AD1002008E0012341
:10390000524649463846C047013003D14FF0FF3098
:10391000BDE8F0870135C6E7E1185A1C302081F870
:103920004300224494F8451082F843100233C7E75D
:103930000123224649463846C0470130E6D00136C9
:10394000D9E700002DE9FF470F7E0C9D782F9146A7
:1039500080460C469A4601F1430207D8622F0AD8E6
:10396000002F00F0D880582F00F0A38004F142050A
:1039700084F842703AE0A7F16303152BF6D801A151
:1039800051F823F0DD390008F13900086D390008DD
:103990006D3900086D3900086D390008F1390008EB
:1039A0006D3900086D3900086D3900086D3900085F
:1039B000FD3A0008213A0008DF3A00086D39000896
:1039C0006D3900081F3B00086D390008213A0008D6
:1039D0006D3900086D390008E73A00082B681A1D98
:1039E0001B682A6004F1420584F842300123A3E0F9
:1039F00020682968060601F104030AD50E682B60C9
:103A0000002E03DA2D23764284F843305E480A23E1
:103A100019E00E682B6010F0400F18BF36B2EFE7C8
:103A20002B682068191D2960010601D51E6802E077
:103A30004606FBD51E8854486F2F0CBF08230A2367
:103A4000002184F843106568A560002DA2BF21689D
:103A500021F0040121600EB9002D4DD01546B6FBB2
:103A6000F3F103FB1167C75D05F8017D3746BB42E3
:103A70000E46F4D9082B0BD12368DE0708D523693D
:103A800061689942DEBF302305F8013C05F1FF353E
:103A9000521B2261CDF800A04B4603AA21464046A6
:103AA000FFF7E2FE01304CD14FF0FF3004B0BDE82B
:103AB000F087354881F845702968236851F8046B10
:103AC00029601D0614D5DF0744BF43F0200323609F
:103AD0001EB9236823F0200323601023B0E7236876
:103AE00043F0200323607823284884F84530E3E737
:103AF000590648BFB6B2E6E71546BBE72B6826680D
:103B00006169181D286035061B6801D5196002E03F
:103B10007006FBD51980002323611546BAE72B6890
:103B20001A1D2A601D68626800212846FCF770FB98
:103B300008B1401B606063682361002384F8433050
:103B4000A8E723692A4649464046D0470130ABD012
:103B500023689B0713D4E068039B9842B8BF1846BC
:103B6000A4E70123324649464046D04701309BD066
:103B70000135E36803995B1AAB42F2DCEBE7002501
:103B800004F11906F5E700BF2D3F00083E3F00088D
:103B90000A44914200F1FF3300D1704710B511F88B
:103BA000014B03F8014F9142F9D110BD884210B585
:103BB00001EB020402D98442234607D8431EA142E6
:103BC00008D011F8012B03F8012FF8E70244014651
:103BD0008A4200D110BD13F8014D02F8014DF7E7FC
:103BE00037B5002944D051F8043C0190002BA1F1D5
:103BF0000404B8BFE41800F013F91E4A01981368D2
:103C000033B96360146003B0BDE8304000F00EB912
:103C1000A34208D9256861198B4201BF19685B6806
:103C200049192160EDE71A465B680BB1A342FAD946
:103C300011685518A5420BD1246821445418A34299
:103C40001160E0D11C685B68536021441160DAE7C1
:103C500002D90C230360D6E7256861198B4204BFA3
:103C600019685B68636004BF491921605460CAE742
:103C700003B030BD7402002070B50E4E0C463168A2
:103C8000054611B900F0BCF830602146284600F026
:103C9000B7F8431C0AD0C41C24F00304A04207D088
:103CA000211A284600F0ACF8013001D14FF0FF3462
:103CB000204670BD780200202DE9F041CD1C25F092
:103CC000030508350C2D38BF0C25002D074601DBF8
:103CD000A94205D90C233B6000263046BDE8F0819F
:103CE0002E4E00F09DF833681C4634BB29463846FA
:103CF000FFF7C2FF431C04464DD134682646002E10
:103D000040D123683146384604EB030800F078F8C8
:103D100080453AD1216803356D1A25F00305083531
:103D20000C2D38BF0C2529463846FFF7A5FF01307A
:103D30002BD023682B4423600EE02268521B1ED434
:103D40000B2A16D96119A342256018BF5960636810
:103D500008BF316062514B60384604F10B0600F039
:103D600065F826F00706231DF21AB6D09B1BA35058
:103D7000B3E76268A3420CBF32605A60ECE72346A7
:103D80006468B2E734467668B9E70C233B6038468E
:103D900000F04CF8A1E72560DEE700BF74020020C8
:103DA0002DE9F041804614460E4621B9BDE8F041A8
:103DB0001146FFF781BF2AB9FFF712FF25462846B3
:103DC000BDE8F08100F038F88442074602D8B4EB31
:103DD000500F12D821464046FFF76EFF05460028D7
:103DE000EDD0BC422246314628BF3A46FFF7D0FE0E
:103DF00031464046FFF7F4FEE1E73546DFE70000D5
:103E000038B5064D0023044608462B6000F01EF826
:103E1000431C02D12B6803B1236038BD7C02002013
:103E2000014800F011B800BF80020020014800F0F6
:103E30000CB800BF8002002051F8043C181F002B72
:103E4000BCBF0B58C018704770477047044A1168D0
:103E5000034609B9034911601068034413607047B1
:103E60008402002088020020F8B500BFF8BC08BC1E
:103E70009E467047F8B500BFF8BC08BC9E46704728
:103E8000435243204D49534D4154434800000000E4
:103E9000435243204D415443484544002530582067
:103EA000256420307825303258203078253058204D
:103EB00025732025640A0000310000003000000056
:103EC00020000000207C20000A0000004461746192
:103ED00020696E76616C6964210000004461746140
:103EE000204F4B0025642064656772656573202848
:103EF0002564292025732028256420746F74616C43
:103F0000290A000000000000000000000102030474
:103F1000060708090000000001020304232D302BCE
:103F20002000686C4C0065666745464700303132BA
:103F30003334353637383941424344454600303111
:103F40003233343536373839616263646566000070
:083F500090C3FF7F0100000097
:043F5800F501000867
:043F5C00D101000887
:103F6000FF000000000306050C0F0A09181B1E1DA8
:103F700014171211303336353C3F3A39282B2E2D89
:103F800024272221232025262F2C292A3B383D3E79
:103F900037343132131015161F1C191A0B080D0E69
:103FA0000704010201000000100000000024F400DA
:103FB000540000200000000000000000000000008D
:103FC00000000000000000000000000000000000F1
:103FD00000000000000000000000000000000000E1
:103FE00000000000000000000000000000000000D1
:103FF00000000000000000000000000000000000C1
:1040000000000000000000000000000000000000B0
:0440100000000000AC
:04000005080034C5F6
:00000001FF
